:020000040800F2
:10000000000002209D11000831040008330400089C
:100010003504000837040008390400080000000017
:100020000000000000000000000000003B04000889
:100030003D040008000000003F04000841040008DF
:10004000ED110008ED110008ED110008ED11000898
:10005000ED110008ED110008ED110008ED11000888
:10006000ED110008ED110008ED110008ED11000878
:10007000ED110008ED110008ED110008ED11000868
:10008000ED110008ED110008ED110008ED11000858
:10009000ED110008ED110008ED110008ED11000848
:1000A000ED110008ED110008ED110008ED11000838
:1000B000ED110008ED110008ED110008ED11000828
:1000C000ED110008ED110008ED110008ED11000818
:1000D000ED110008ED110008ED110008ED11000808
:1000E000ED110008ED110008ED110008ED110008F8
:1000F000ED110008ED110008ED110008ED110008E8
:10010000ED110008ED110008ED110008ED110008D7
:10011000ED110008ED110008ED110008ED110008C7
:10012000ED110008ED110008ED110008ED110008B7
:10013000ED1100080000000000000000ED110008B3
:10014000ED110008ED110008ED110008ED11000897
:10015000ED110008ED110008ED110008ED11000887
:10016000ED110008ED110008ED110008ED11000877
:10017000ED110008ED110008ED110008000000006D
:1001800000000000ED110008000000000000000069
:10019000ED1100080000000000000000ED11000853
:1001A000000000000000000000000000ED11000849
:1001B000ED110008ED110008ED110008ED11000827
:0401C000ED11000835
:1001C40053B94AB9002908BF00281CBF4FF0FF31BA
:1001D4004FF0FF3000F00CB8ADF1080C6DE904CE1F
:1001E40001F030F8DDF804E0DDE9022304B07047E3
:1001F400704700BF0348044B834202D0034B03B152
:10020400184770470C0000200C000020000000007C
:100214000548064B1B1AD90F01EBA301491002D064
:10022400034B03B1184770470C0000200C0000205A
:100234000000000010B5064C237843B9FFF7DAFF3D
:10024400044B13B10448AFF300800123237010BDA5
:100254000C000020000000000415000808B5054B40
:100264001BB105490548AFF30080BDE80840FFF71E
:10027400CFBF00BF000000001000002004150008DC
:1002840030B58BB00024059406940794089409941F
:100294000194224B1A6B42F004021A631A6B02F0A7
:1002A40004020192019A02941A6B42F080021A63CA
:1002B4001A6B02F080020292029A03941A6B42F0C3
:1002C40001021A631A6B02F001020392039A049466
:1002D4001A6B42F002021A631B6B03F002030493CD
:1002E400049B0F4D22462021284600F06BFE4FF45C
:1002F400005305934FF404130693079405A9094882
:1003040000F070FD202305930123069307940894BD
:1003140005A9284600F066FD0BB030BD0038024048
:10032400000002400008024072B6FEE708B50A4821
:100334000A4B03604FF4E133436000238360C360DE
:1003440003610C2242618361C36100F05BF900B96F
:1003540008BDFFF7E9FF00BF28000020004400406B
:1003640000B595B03422002107A800F03EFF002319
:100374000293039304930593069300931F4A116C0D
:1003840041F080511164126C02F080520092009A84
:1003940001931B490A6822F4404242F480420A60F5
:1003A4000A6802F440420192019A02220792012152
:1003B4000A9110210B910D920E930F914FF4A87393
:1003C4001093042311931292139207A800F0E8FAF1
:1003D40080B90F23029302210391002304934FF465
:1003E40080520592069302A800F03CF920B915B09A
:1003F4005DF804FBFFF798FFFFF796FF0038024013
:100404000070004008B500F07DFEFFF7A9FFFFF77C
:1004140037FFFFF78BFF2021034800F0D9FD4FF48D
:10042400FA7000F09BFEF6E700000240FEE7FEE7EC
:10043400FEE7FEE7FEE770477047704708B500F037
:100444007BFE08BD00B583B0002100910C4B5A6CB3
:1004540042F480425A645A6C02F480420092009A38
:1004640001911A6C42F080521A641B6C03F08053A1
:100474000193019B072000F0E9FD03B05DF804FB44
:100484000038024000B589B0002303930493059318
:10049400069307930268154B9A4202D009B05DF89F
:1004A40004FB0021019103F5FA331A6C42F4003283
:1004B4001A641A6C02F400320192019A02911A6BC6
:1004C40042F001021A631B6B03F001030293029BC7
:1004D4000C23039302230493032306930723079314
:1004E40003A9034800F07EFCD8E700BF00440040A5
:1004F4000000024010B504460268136923F4405317
:10050400C1680B431361836802691A4343691A4340
:10051400C3691A430168CB6823F4164323F00C0320
:100524001343CB600268536923F4407381690B431E
:1005340053610368314A934206D002F580629342C4
:1005440002D000F045F901E000F052F9E369B3F597
:10055400004F29D00021031849411B1841F1000123
:10056400C90041EA5371DB00181863684FEA83023B
:100574004FEA937341F10001FFF722FE204AA2FBE8
:1005840000314909642303FB11031B013233A2FB2D
:1005940003235B0903F0F00202EB011203F00F03E3
:1005A400216813448B6010BD0023021843EB030140
:1005B400121841F10001C90041EA5271D200101829
:1005C40041F10001626892185B41FFF7F9FD0C4AA2
:1005D400A2FB00314909642303FB1103DB0032331E
:1005E400A2FB03235B095A0002F4F87202EB011226
:1005F40003F00703216813448B60D4E70010014023
:100604001F85EB5160B310B5044690F8413013B325
:10061400242384F841302268D36823F40053D36040
:100624002046FFF767FF2268136923F490431361A0
:100634002268536923F02A0353612268D36843F480
:100644000053D36000206064202384F8413084F890
:100654004230606310BD80F84030FFF713FFD7E7E6
:1006640001207047002800F09B8070B50D460446B9
:100674004F4B1B6803F00F038B4208D2CBB24C4A9A
:100684001370136803F00F038B4240F08B802368D0
:1006940013F0020F17D013F0040F04D0454A9368E7
:1006A40043F4E0539360236813F0080F04D0414AE5
:1006B400936843F4604393603E4A936823F0F003E5
:1006C400A1680B439360236813F0010F32D0636871
:1006D400012B21D09A1E012A25D9364A126812F01C
:1006E400020F61D033498A6822F0030213438B60FE
:1006F40000F02EFD06462F4B9B6803F00C03626846
:10070400B3EB820F16D000F023FD801B41F2883337
:100714009842F0D9032042E0264A126812F4003FBE
:10072400E0D101203BE0234A126812F0007FD9D1C6
:10073400012034E01E4B1B6803F00F03AB4207D9C2
:10074400EAB21B4B1A701B6803F00F03AB422DD1A6
:10075400236813F0040F06D0164A936823F4E05379
:10076400E1680B439360236813F0080F07D0114A24
:10077400936823F46043216943EAC103936000F062
:1007840047F80C4B9B68C3F303130B4AD35CD84064
:100794000A4B18600A4B186800F08EFC002070BDEC
:1007A400012070470120FAE70120F8E70120F6E76D
:1007B400003C0240003802402415000808000020D4
:1007C40004000020014B1868704700BF0800002097
:1007D40008B5FFF7F7FF044B9B68C3F38223034A72
:1007E400D35CD84008BD00BF003802401C15000887
:1007F40008B5FFF7E7FF044B9B68C3F34233034A92
:10080400D35CD84008BD00BF003802401C15000866
:1008140008B5604B9B6803F00C03082B07D00C2B26
:100824005FD0042B01D05C4808BD5C48FCE7594B01
:100834005A6802F03F025B6813F4800F2CD0554BCA
:100844005868C0F388104FEA401CBCEB000C6EEBF8
:100854000E0E4FEA8E1343EA9C634FEA8C11B1EB00
:100864000C0163EB0E03DB0043EA5173C90011EB87
:10087400000C43F10003590200234FEA4C2041EAE3
:10088400DC51FFF79DFC434B5B68C3F30143013329
:100894005B00B0FBF3F0C7E73E4B5868C0F3881029
:1008A4004FEA401CBCEB000C6EEB0E0E4FEA8E13AD
:1008B40043EA9C634FEA8C11B1EB0C0163EB0E032A
:1008C400DB0043EA5173C90011EB000C43F1000350
:1008D400990200234FEA8C2041EA9C51FFF770FCF7
:1008E400D1E72C4B5A6802F03F025B6813F4800F87
:1008F4002AD0284B5868C0F388104FEA401CBCEB40
:10090400000C6EEB0E0E4FEA8E1343EA9C634FEA23
:100914008C11B1EB0C0163EB0E03DB0043EA517362
:10092400C90011EB000C43F10003590200234FEA04
:100934004C2041EADC51FFF743FC164B5B68C3F3E0
:100944000273B0FBF3F06FE7124B5868C0F38810E2
:100954004FEA401CBCEB000C6EEB0E0E4FEA8E13FC
:1009640043EA9C634FEA8C11B1EB0C0163EB0E0379
:10097400DB0043EA5173C90011EB000C43F100039F
:10098400990200234FEA8C2041EA9C51FFF718FC9E
:10099400D3E700BF003802400024F40000127A00BC
:1009A400002800F0018270B582B00446036813F099
:1009B400010F41D0994B9B6803F00C03042B32D0F8
:1009C400964B9B6803F00C03082B27D0934B9B6832
:1009D40003F00C030C2B59D06368B3F5803F5BD054
:1009E400B3F5A02F5ED08D4B1A6822F480321A60C2
:1009F4001A6822F480221A606368002B5CD000F02D
:100A0400A7FB0546854B1B6813F4003F14D100F087
:100A14009FFB401B6428F5D90320CCE17F4B5B6826
:100A240013F4800FD2D07D4B1B6813F4003F03D026
:100A34006368002B00F0BA81236813F0020F60D0C2
:100A4400764B9B6813F00C0F4AD0744B9B6803F0F1
:100A54000C03082B3FD0714B9B6803F00C030C2B49
:100A640069D0E368002B75D06D4B01221A6000F049
:100A74006FFB0546694B1B6813F0020F61D100F050
:100A840067FB401B0228F5D9032094E1634B5B68A4
:100A940013F4800FA0D0C6E7604A136843F4803390
:100AA4001360A9E75D4B1A6842F480221A601A6841
:100AB40042F480321A609FE700F04AFB0546574B28
:100AC4001B6813F4003FB7D000F042FB401B6428BE
:100AD400F5D903206FE1514B5B6813F4800FBAD151
:100AE4004E4B1B6813F0020F03D0E368012B40F058
:100AF4005F814A4A136823F0F803216943EAC1037A
:100B04001360236813F0080F49D06369002B33D0B6
:100B1400434B0122C3F8802E00F01AFB05463F4BDD
:100B24005B6F13F0020F3AD100F012FB401B022856
:100B3400F5D903203FE1394B5B6813F4800F90D162
:100B4400CEE7364A136823F0F803216943EAC10368
:100B54001360D6E7324B00221A6000F0F9FA05461A
:100B64002E4B1B6813F0020FCBD000F0F1FA401BA0
:100B74000228F5D903201EE1294B0022C3F8802E58
:100B840000F0E6FA0546254B5B6F13F0020F06D022
:100B940000F0DEFA401B0228F5D903200BE123689C
:100BA40013F0040F76D01D4B1B6C13F0805F33D110
:100BB40000230193194B1A6C42F080521A641B6C87
:100BC40003F080530193019B0125164B1B6813F41A
:100BD400807F29D0A368012B3AD0052B3ED00F4B40
:100BE4001A6F22F001021A671A6F22F004021A67C0
:100BF400A368002B3CD000F0ABFA0646074B1B6FF2
:100C040013F0020F45D100F0A3FA801B41F28833A0
:100C14009842F3D90320CEE00025D6E700380240FD
:100C240000004742007000406B4A136843F480732D
:100C3400136000F08DFA0646674B1B6813F4807F3F
:100C4400C8D100F085FA801B0228F5D90320B2E050
:100C5400624A136F43F001031367C9E75F4B1A6FCE
:100C640042F004021A671A6F42F001021A67BFE7E2
:100C740000F06EFA0646594B1B6F13F0020F08D0B2
:100C840000F066FA801B41F288339842F3D90320BE
:100C940091E0EDB9A369002B00F08C804F4A926873
:100CA40002F00C02082A54D0022B17D04C4B00221D
:100CB4001A6600F04DFA0446484B1B6813F0007F97
:100CC40045D000F045FA001B0228F5D9032072E054
:100CD400424A136C23F080531364DBE7404B002239
:100CE4001A6600F035FA05463C4B1B6813F0007F8A
:100CF40006D000F02DFA401B0228F5D903205AE053
:100D0400E369226A1343626A43EA8213A26A5208BD
:100D1400013A43EA0243E26A43EA0263226B43EA8A
:100D240002732E4A53602E4B01221A6600F010FA09
:100D340004462A4B1B6813F0007F06D100F008FA22
:100D4400001B0228F5D9032035E0002033E0002001
:100D540031E0012B31D0214B5B6803F48001E2695F
:100D640091422CD103F03F02216A8A4229D1616A5F
:100D740047F6C0721A40B2EB811F24D103F440310C
:100D8400A26A5208013AB1EB024F1ED103F070621D
:100D9400E16AB2EB016F1AD103F0E043226BB3EBCB
:100DA400027F16D1002006E001207047012002E0F6
:100DB400012000E0002002B070BD0120FBE701200B
:100DC400F9E70120F7E70120F5E70120F3E7012027
:100DD400F1E70120EFE700BF007000400038024057
:100DE4000000474200230F2B00F2E38070B582B06D
:100DF40065E085684FEA430E032404FA0EF425EAFD
:100E04000405CC6804FA0EF42C438460446824EA94
:100E140002044A68C2F300129A40224342605CE032
:100E2400DC08083450F8242003F00705AD004FF027
:100E34000F0E0EFA05FE22EA0E0E0A69AA4042EAD5
:100E44000E0240F824205CE0062200E0002202FAB0
:100E54000EF22A430234574D45F82420564A94682A
:100E64006FEA0C0224EA0C054E6816F4801F01D0C8
:100E74004CEA0405504CA560E46802EA04054E6897
:100E840016F4001F01D04CEA04054B4CE56064687D
:100E940002EA04054E6816F4003F01D04CEA04054A
:100EA400454C6560246822404D6815F4803F01D0AC
:100EB4004CEA0402404C226001330F2B77D8012204
:100EC4009A400C6804EA020C32EA0404F4D14C6837
:100ED40004F00304013C012C8BD94A6802F003029C
:100EE400032A09D0C4685D000322AA4024EA02044C
:100EF4008A68AA402243C2604A6802F00302022AB6
:100F04008ED004684FEA430E032202FA0EF224EA5A
:100F140002044A6802F0030202FA0EF2224302605B
:100F24004A6812F4403FC7D000220192234A546C0D
:100F340044F480445464526C02F480420192019A55
:100F44009C08A51C1B4A52F8255003F0030E4FEAD7
:100F54008E0E0F2202FA0EF225EA0205184A90427A
:100F64003FF474AF02F58062904216D002F58062BD
:100F7400904214D002F58062904212D002F5806251
:100F8400904210D002F5806290420ED002F5806249
:100F940090423FF459AF072259E7012257E7022252
:100FA40055E7032253E7042251E705224FE702B035
:100FB40070BD704700380140003C014000380240D9
:100FC400000002400AB181617047090481617047E1
:100FD400436901EA030221EA030141EA0241816112
:100FE40070470000002808DB0901C9B200F1604025
:100FF40000F5614080F80013704700F00F0009010C
:10100400C9B2014B1954704714ED00E000B500F06B
:101014000700C0F1070CBCF1040F28BF4FF0040C0B
:10102400031D062B0FD9C31E4FF0FF3E0EFA0CF022
:1010340021EA000199400EFA03FE22EA0E0241EA77
:1010440002005DF804FB0023EEE70000074AD368C2
:1010540023F4E0631B041B0C000200F4E060034370
:1010640043F0BF6343F40033D360704700ED00E006
:1010740010B50446054BD868C0F30220FFF7C6FF3D
:1010840001462046FFF7AEFF10BD00BF00ED00E0B3
:101094000138B0F1807F0BD24FF0E0235861054A4C
:1010A400F02182F823100020986107221A6170470A
:1010B4000120704700ED00E010B504460E4B1A788D
:1010C4004FF47A73B3FBF2F30C4A1068B0FBF3F0FD
:1010D400FFF7DEFF68B90F2C01D901200AE00022D6
:1010E40021464FF0FF30FFF7C3FF054B1C60002083
:1010F40000E0012010BD00BF000000200800002017
:101104000400002008B50B4B1A6842F400721A6000
:101114001A6842F480621A601A6842F480721A6093
:101124000320FFF793FF0020FFF7C6FFFFF78AF9BC
:10113400002008BD003C0240034A1168034B1B78A1
:101144000B441360704700BF7000002000000020B3
:10115400014B1868704700BF7000002038B5044682
:10116400FFF7F6FF0546B4F1FF3F02D0044B1B78AE
:101174001C44FFF7EDFF401BA042FAD338BD00BF6B
:1011840000000020034AD2F8883043F47003C2F808
:101194008830704700ED00E0DFF834D0FFF7F2FF4D
:1011A4000C480D490D4A002302E0D458C4500433BE
:1011B400C4188C42F9D30A4A0A4C002301E0136094
:1011C4000432A242FBD300F019F8FFF71BF9704771
:1011D40000000220000000200C000020441500083C
:1011E4000C00002074000020FEE7024403469342F2
:1011F40000D1704703F8011BF9E7000070B50D4DED
:101204000D4C641BA4100026A64209D10B4D0C4CB6
:1012140000F076F9641BA4100026A64205D170BD27
:1012240055F8043B98470136EEE755F8043B9847D8
:101234000136F2E73C1500083C1500083C1500088F
:10124400401500082DE9F047089D0C46002B4ED1AF
:1012540094468C458646B2FA82F262D94AB1C2F10A
:101264002003914020FA03F30CFA02FC194300FA1C
:1012740002FE4FEA1C471FFA8CF6B1FBF7F44FEA63
:101284001E4307FB141143EA014304FB06F1994290
:101294000AD91CEB030304F1FF3080F01281994258
:1012A40040F20F81023C6344591A1FFA8EF3B1FBDA
:1012B400F7F007FB101143EA014300FB06F69E42D8
:1012C4000AD91CEB030300F1FF3180F0FC809E423D
:1012D40040F2F980634402389B1B40EA0440002139
:1012E4001DB1D3400022C5E90032BDE8F0878B422E
:1012F40005D90DB1C5E9000100210846F5E7B3FAA7
:1013040083F1002946D1A34202D39042C0F0F08079
:10131400861A64EB03030120002DE6D0C5E90063BF
:10132400E3E7002A40F09080A1EB0C044FEA1C484C
:101334001FFA8CF70121B4FBF8F64FEA1E4308FBB1
:10134400164443EA044307FB06F0984208D91CEB11
:10135400030306F1FF3402D2984200F2CD80264600
:101364001C1A1FFA8EF3B4FBF8F008FB104443EA8E
:10137400044300FB07F79F4208D91CEB030300F169
:10138400FF3402D29F4200F2B0802046DB1B40EAC9
:101394000640A5E7C1F120068B4022FA06F71F4359
:1013A40020FA06FC04FA01F343EA0C03F44000FAC1
:1013B40001F8380C4FEA1349B4FBF0FE1FFA87FC1E
:1013C40000FB1E4449EA04440EFB0CF9A14502FA51
:1013D40001F20AD93C190EF1FF3A80F08480A1454C
:1013E40040F28180AEF1020E3C44A4EB09041FFAE2
:1013F40083F9B4FBF0F300FB134449EA044403FB10
:101404000CFCA44507D93C1903F1FF3067D2A4456D
:1014140065D9023B3C4443EA0E40A0FB0293A4EB93
:101424000C049C42CE469C4651D34ED055B1B8EBE9
:101434000E0364EB0C0404FA06F6CB401E43CC40C6
:10144400C5E90064002150E7C2F1200320FA03F14A
:101454000CFA02FC24FA03F394400C434FEA1C48B0
:1014640000FA02FE1FFA8CF7B3FBF8F008FB103108
:10147400230C43EA014300FB07F1994208D91CEB12
:10148400030300F1FF362CD299422AD9023863446F
:101494005B1AA4B2B3FBF8F108FB113344EA03442A
:1014A40001FB07F3A34208D91CEB040401F1FF3646
:1014B40013D2A34211D902396444E41A41EA004127
:1014C40039E70446F0E6084606E7C845AED2B9EB6C
:1014D400020E63EB070C0138A8E73146EDE703463B
:1014E40099E73046D4E7D6467FE7634402384DE7B0
:1014F4000646234608460FE7023E634430E700BF32
:10150400F8B500BFF8BC08BC9E467047F8B500BFEC
:08151400F8BC08BC9E467047BC
:10151C0000000000010203040000000000000000B5
:08152C0001020304060708098F
:0815340014FDFF7F010000001F
:04153C006102000840
:041540003902000864
:0C15440001000000100000000024F40072
:040000050800119D41
:00000001FF
